{
  "contractName": "Investment",
  "abi": [
    {
      "constant": true,
      "inputs": [
        {
          "name": "",
          "type": "uint256"
        }
      ],
      "name": "investors",
      "outputs": [
        {
          "name": "",
          "type": "address"
        }
      ],
      "payable": false,
      "stateMutability": "view",
      "type": "function"
    },
    {
      "constant": false,
      "inputs": [
        {
          "name": "projectId",
          "type": "uint256"
        },
        {
          "name": "amount",
          "type": "uint8"
        }
      ],
      "name": "invest",
      "outputs": [
        {
          "name": "",
          "type": "uint256"
        }
      ],
      "payable": false,
      "stateMutability": "nonpayable",
      "type": "function"
    },
    {
      "constant": false,
      "inputs": [],
      "name": "getAmountRaised",
      "outputs": [
        {
          "name": "",
          "type": "uint8"
        }
      ],
      "payable": false,
      "stateMutability": "nonpayable",
      "type": "function"
    },
    {
      "constant": true,
      "inputs": [],
      "name": "amount_raised",
      "outputs": [
        {
          "name": "",
          "type": "uint8"
        }
      ],
      "payable": false,
      "stateMutability": "view",
      "type": "function"
    },
    {
      "constant": false,
      "inputs": [],
      "name": "getInvestors",
      "outputs": [
        {
          "name": "",
          "type": "address[16]"
        }
      ],
      "payable": false,
      "stateMutability": "nonpayable",
      "type": "function"
    }
  ],
  "bytecode": "0x6060604052341561000f57600080fd5b6103b58061001e6000396000f30060606040526004361061006d576000357c0100000000000000000000000000000000000000000000000000000000900463ffffffff1680633feb5f2b146100725780635e03b67a146100d55780636d1af018146101185780638f8b81f214610147578063b2f5a54c14610176575b600080fd5b341561007d57600080fd5b61009360048080359060200190919050506101c7565b604051808273ffffffffffffffffffffffffffffffffffffffff1673ffffffffffffffffffffffffffffffffffffffff16815260200191505060405180910390f35b34156100e057600080fd5b610102600480803590602001909190803560ff169060200190919050506101fc565b6040518082815260200191505060405180910390f35b341561012357600080fd5b61012b61029f565b604051808260ff1660ff16815260200191505060405180910390f35b341561015257600080fd5b61015a6102b6565b604051808260ff1660ff16815260200191505060405180910390f35b341561018157600080fd5b6101896102c9565b6040518082601060200280838360005b838110156101b4578082015181840152602081019050610199565b5050505090500191505060405180910390f35b6000816010811015156101d657fe5b016000915054906101000a900473ffffffffffffffffffffffffffffffffffffffff1681565b600080831015801561020f5750600f8311155b151561021a57600080fd5b3360008460108110151561022a57fe5b0160006101000a81548173ffffffffffffffffffffffffffffffffffffffff021916908373ffffffffffffffffffffffffffffffffffffffff16021790555081601060008282829054906101000a900460ff160192506101000a81548160ff021916908360ff16021790555082905092915050565b6000601060009054906101000a900460ff16905090565b601060009054906101000a900460ff1681565b6102d161034a565b6000601080602002604051908101604052809291908260108015610340576020028201915b8160009054906101000a900473ffffffffffffffffffffffffffffffffffffffff1673ffffffffffffffffffffffffffffffffffffffff16815260200190600101908083116102f6575b5050505050905090565b610200604051908101604052806010905b600073ffffffffffffffffffffffffffffffffffffffff1681526020019060019003908161035b57905050905600a165627a7a7230582073e545010f6b961d6b517c6245417a6939d3ed98d4dd911b3a956c5be19566820029",
  "source": "pragma solidity ^0.4.4;\n\ncontract Investment {\n\n\t//array of 16 addresses, 20 bytes\n\taddress[16] public investors;\n\t/* uint public goal; */\n\tuint8 public amount_raised;\n\n\tfunction invest(uint projectId, uint8 amount) public returns (uint) {\n\n\t\trequire( projectId >= 0 && projectId <= 15 );\n\n\t\tinvestors[projectId] = msg.sender;\n\t\tamount_raised += amount;\n\n\t\treturn projectId;\n\t}\n\n\t/* function getGoal() public returns (uint) {\n\t\treturn goal;\n\t} */\n\n\tfunction getAmountRaised() public returns (uint8) {\n\t\treturn amount_raised;\n\t}\n\n\tfunction getInvestors() public returns (address[16]) {\n\t\treturn investors;\n\t}\n}\n",
  "sourcePath": "/Users/yj/Developer/truffle-pet-shop/contracts/Investment.sol",
  "compiler": {
    "name": "solc",
    "version": "0.4.18+commit.9cf6e910.Emscripten.clang"
  },
  "schemaVersion": "1.0.1",
  "updatedAt": "2018-01-14T14:10:59.809Z"
}