{
  "contractName": "ProjectFunding",
  "abi": [
    {
      "constant": false,
      "inputs": [
        {
          "name": "project",
          "type": "address"
        }
      ],
      "name": "validProject",
      "outputs": [
        {
          "name": "",
          "type": "bool"
        }
      ],
      "payable": false,
      "stateMutability": "nonpayable",
      "type": "function"
    },
    {
      "constant": true,
      "inputs": [
        {
          "name": "",
          "type": "address"
        }
      ],
      "name": "fundsReceived",
      "outputs": [
        {
          "name": "",
          "type": "uint256"
        }
      ],
      "payable": false,
      "stateMutability": "view",
      "type": "function"
    },
    {
      "constant": false,
      "inputs": [
        {
          "name": "project",
          "type": "address"
        }
      ],
      "name": "totalFundsFor",
      "outputs": [
        {
          "name": "",
          "type": "uint256"
        }
      ],
      "payable": false,
      "stateMutability": "nonpayable",
      "type": "function"
    },
    {
      "constant": false,
      "inputs": [
        {
          "name": "project",
          "type": "address"
        }
      ],
      "name": "fundProject",
      "outputs": [],
      "payable": false,
      "stateMutability": "nonpayable",
      "type": "function"
    },
    {
      "inputs": [
        {
          "name": "projects",
          "type": "address[]"
        }
      ],
      "payable": false,
      "stateMutability": "nonpayable",
      "type": "constructor"
    }
  ],
  "bytecode": "0x6060604052341561000f57600080fd5b604051610440380380610440833981016040528080518201919050508060019080519060200190610041929190610048565b5050610115565b8280548282559060005260206000209081019282156100c1579160200282015b828111156100c05782518260006101000a81548173ffffffffffffffffffffffffffffffffffffffff021916908373ffffffffffffffffffffffffffffffffffffffff16021790555091602001919060010190610068565b5b5090506100ce91906100d2565b5090565b61011291905b8082111561010e57600081816101000a81549073ffffffffffffffffffffffffffffffffffffffff0219169055506001016100d8565b5090565b90565b61031c806101246000396000f300606060405260043610610062576000357c0100000000000000000000000000000000000000000000000000000000900463ffffffff168063276722a614610067578063390eff28146100b857806390eaaac814610105578063f74cd9b914610152575b600080fd5b341561007257600080fd5b61009e600480803573ffffffffffffffffffffffffffffffffffffffff1690602001909190505061018b565b604051808215151515815260200191505060405180910390f35b34156100c357600080fd5b6100ef600480803573ffffffffffffffffffffffffffffffffffffffff16906020019091905050610226565b6040518082815260200191505060405180910390f35b341561011057600080fd5b61013c600480803573ffffffffffffffffffffffffffffffffffffffff1690602001909190505061023e565b6040518082815260200191505060405180910390f35b341561015d57600080fd5b610189600480803573ffffffffffffffffffffffffffffffffffffffff16906020019091905050610286565b005b6000806000905060018054905081101561021f578273ffffffffffffffffffffffffffffffffffffffff166001828154811015156101c557fe5b906000526020600020900160009054906101000a900473ffffffffffffffffffffffffffffffffffffffff1673ffffffffffffffffffffffffffffffffffffffff1614156102165760019150610220565b60009150610220565b5b50919050565b60006020528060005260406000206000915090505481565b60008060008373ffffffffffffffffffffffffffffffffffffffff1673ffffffffffffffffffffffffffffffffffffffff168152602001908152602001600020549050919050565b600015156102938261018b565b151514156102a057600080fd5b60646000808373ffffffffffffffffffffffffffffffffffffffff1673ffffffffffffffffffffffffffffffffffffffff16815260200190815260200160002060008282540192505081905550505600a165627a7a72305820840e83f21a0794ff98b826bc17267640104cdc11c695055b9ef4872f9bad5c070029",
  "source": "/* pragma solidity ^0.4.4;\n\ncontract Investment {\n\n\t//array of 16 addresses, 20 bytes\n\taddress[16] public projects;\n\taddress client;\n\tbool _switch;\n\n\tevent UpdateStatus(string _msg, uint _amount);\n\n\tfunction Investment() {\n\t\tclient = msg.sender;\n\t}\n\n\tfunction depositFunds() payable {\n\t\tUpdateStatus('User transferred some money', msg.value);\n\t}\n\n\tfunction withdrawFunds(uint amount) {\n\t\tif (client.send(amount)) {\n\t\t\t_switch = true;\n\t\t}\n\t\telse {\n\t\t\t_switch = false;\n\t\t}\n\t}\n\n\tfunction getter() constant returns (uint) {\n\t\treturn this.balance;\n\t}\n\n\tfunction invest(uint projectId, uint amount) public returns (uint) {\n\n\t\trequire( projectId >= 0 && projectId <= 15 );\n\n\t\tprojects[projectId] = msg.sender;\n\n\t\treturn projectId;\n\t}\n\n\tfunction getProjects() public returns (address[16]) {\n\t\treturn projects;\n\t}\n} */\n\n\ncontract ProjectFunding {\n\n    mapping(address => uint) public fundsReceived;\n\n    address[] projectsList;\n\n    function ProjectFunding(address[] projects) {\n        projectsList = projects;\n    }\n\n    function totalFundsFor(address project) returns (uint) {\n        return fundsReceived[project];\n    }\n\n    function fundProject (address project) {\n        if(validProject(project) == false) throw;\n        fundsReceived[project] += 100;\n    }\n\n    function validProject(address project) returns (bool) {\n        for (uint i = 0; i < projectsList.length; i++) {\n            if (projectsList[i] == project) {\n                return true;\n            }\n            return false;\n        }\n    }\n\n}\n",
  "sourcePath": "/Users/yj/Developer/truffle-pet-shop/contracts/Investment.sol",
  "compiler": {
    "name": "solc",
    "version": "0.4.18+commit.9cf6e910.Emscripten.clang"
  },
  "schemaVersion": "1.0.1",
  "updatedAt": "2018-01-14T15:54:52.456Z"
}